:020000022000DC
:1060000000000120F9B4020021B50200996D0200E0
:1060100025B5020027B5020029B5020000000000E6
:106020000000000000000000000000002BB502008E
:106030002DB50200000000002FB5020031B50200AE
:10604000A989020033B50200618E02005D92020050
:106050007D91020033B50200D58C0200D18F020081
:106060002D9202003D92020033B5020033B50200CA
:1060700033B5020033B5020033B5020033B5020078
:1060800033B502003968020033B5020033B50200AF
:10609000D568020033B5020039A9020033B5020009
:1060A00033B5020033B5020033B5020033B5020048
:1060B000898F020033B502000000000000000000DC
:1060C00033B50200998F0200A98F020033B5020098
:1060D00033B5020033B5020033B502000000000002
:1060E00000000000000000000000000000000000B0
:1060F00000000000000000000000000000000000A0
:10610000000000000000000000000000000000008F
:10611000000000000000000000000000000000007F
:10612000000000000000000000000000000000006F
:10613000000000000000000000000000000000005F
:10614000000000000000000000000000000000004F
:10615000000000000000000000000000000000003F
:10616000000000000000000000000000000000002F
:10617000000000000000000000000000000000001F
:10618000000000000000000000000000000000000F
:1061900000000000000000000000000000000000FF
:1061A00000000000000000000000000000000000EF
:1061B00000000000000000000000000000000000DF
:1061C00000000000000000000000000000000000CF
:1061D00000000000000000000000000000000000BF
:1061E00000000000000000000000000000000000AF
:1061F000000000000000000000000000000000009F
:1062000010B5054C237833B9044B13B10448AFF3F0
:1062100000800123237010BD90A200200000000028
:106220008C31030008B5034B1BB103490348AFF39E
:10623000008008BD0000000094A200208C31030003
:10624000154B002B08BF134B9D46A3F5803A002148
:106250008B460F461348144A121A05F09DFA0F4B4D
:10626000002B00D098470E4B002B00D09847002001
:10627000002104000D000D48002802D00C4807F052
:1062800001FB05F067F92000290000F019F805F07E
:1062900051F900BF000008000000012000000000CC
:1062A0000000000090A2002074B3002085D80200F6
:1062B00055EA0200014805F0B9BA00BF68150300AD
:1062C00010B54FF4004186B0002001F0B3FB18B1C7
:1062D000224A382100F05DFA01F0DAFA204805F090
:1062E000A5FA204B0FCB02AC84E80F001322142335
:1062F00021461D48CDE9022302F05EFA18B1174A83
:10630000422100F046FA1B210323002416488DF891
:1063100007308DF804408DF805408DF8064000F0F8
:1063200021F9019800F028F9104805F07FFA10488B
:1063300004F0F8FE0F4B186004F03CFF00F01CFC6A
:106340000D4A0E48012100F05BFC22464FF400414B
:106350000B4800F067FC04F0D9FEFCE77C15030055
:106360008315030054150300B015030094150300B2
:10637000A8980020C0B20020B56202006415030096
:10638000ACA2002038B5054D044645F001054FF498
:106390007A40A847013CFAD138BD00BF80160300FF
:1063A0007FB505460E46144672B601F079FD01F040
:1063B0009BFB0028FBD13E4805F038FA41F201036F
:1063C0009D4264D006D8012D12D03146394805F0DF
:1063D0002DFA10E044F201039D425AD044F2020328
:1063E0009D42F2D122886168334805F01FFA02E02D
:1063F000324805F01BFA02F079FB08B902F040FBC5
:106400000023ADF80C308DF80E3003A901231920BC
:106410008DF80D3002F074FB03A9182002F070FB18
:1064200003A9172002F06CFB192002F025FC1820AC
:1064300002F022FC172002F01FFC4FF4FA70FFF765
:10644000A1FF192002F0EAFB182002F0E7FB172059
:1064500002F0E4FB3220FFF795FF192002F00CFC5C
:10646000182002F009FC172002F006FC4FF4FA7025
:10647000FFF788FF192002F0D1FB182002F0CEFBB5
:10648000172002F0CBFBFA20FFF77CFFCCE70C488B
:10649000AFE7A568284602F07DF8236801960093CF
:1064A000024663680748294605F0C0F9A3E700BF24
:1064B000C81503006516030020160300E11503004C
:1064C000FE1503003B16030007B502F00FFB08B9E9
:1064D00002F0D6FA0023ADF804308DF8063001A999
:1064E000012319208DF8053002F00AFB01A91820BC
:1064F00002F006FB01A9172002F002FB192002F0AE
:10650000BBFB182002F0B8FB172002F0B5FB4FF4DC
:10651000FA70FFF737FF192002F080FB182002F015
:106520007DFB172002F07AFB3220FFF72BFF1920AA
:1065300002F0A2FB182002F09FFB172002F09CFB48
:106540004FF4FA70FFF71EFF192002F067FB1820C6
:1065500002F064FB172002F061FBFA20FFF712FF44
:10656000CCE70000024B1860024B1960704700BF77
:1065700030A500202CA500201FB5C0F30723C2B210
:106580009B0143EAC213C0F3026203901343C0F3BA
:1065900007400B4A43EAC00300210A4853700091A8
:1065A0000123094A006802F073F930B1074A7F21DC
:1065B00005B05DF804EB00F0ECB805B05DF804FB45
:1065C000B898002030A5002088160300901603001C
:1065D0000369C1688B429DBF8268D21802F1FF3205
:1065E00003F1FF3394BF501A581A70472DE9F04158
:1065F000D0E902670446F61B406896428846154675
:10660000384405D905F02EF83D44E560BDE8F08139
:106610003246AD1B05F026F82A4608EB06016068F5
:1066200005F020F8F1E72DE9F843C56806468946EC
:1066300017464FF000083469B3687068A54228BF58
:10664000E418013C621B5C1BBC4228BF3C469442E0
:1066500028BF144649462844224605F003F8B3688B
:106660002544AB4208BF00253F1BA044A144F56070
:10667000E1D14046BDE8F88310B5114C114AA26142
:106680000223C4E90433104BE361A2644FF40073A6
:106690000E4A2362E264002310220D49A362E01D2A
:1066A0006362E362A3656365E365226505F09AF9B9
:1066B0000849204605F096F92023A37110BD00BFBC
:1066C000C4B20020E716030044A5002034A5002032
:1066D000F0160300F4160300F8B5184C182300FB5D
:1066E000033503FB00402544C46A012C0F461646BF
:1066F00011D003D3022C1BD000240AE02846FFF758
:1067000067FF864205D8324639462846FFF76EFFB6
:1067100034462046F8BD2846FFF75AFF86423446E5
:1067200028BF0446224639462846FFF75FFFF0E7B8
:106730002846BDE8F840FFF776BF00BFC4B200208E
:1067400073B50D4B1B7804460D4616460BB9FFF783
:1067500093FF02A8002300F8013D00F0C5FA32467D
:1067600029462046FFF7B8FF04469DF8070000F0D1
:10677000EBFA204602B070BDC4B20020FFF77CBF28
:1067800010B511461C461A460020FFF7D9FF2046D7
:1067900010BD00B583B002900091019244F2010057
:1067A00071466A46FFF7FCFD03B000BD094A537805
:1067B00091780133DBB2994208BF002311789942E6
:1067C0001FBF03705078182303FB002014BF043050
:1067D0000020704744A7002073B5054602A8002496
:1067E00000F8014D0E4600F07FFA0DF10600FFF7AC
:1067F000DDFF90B106700A4B9DF8062045605A7087
:106800009DF8070000F0A0FA24B9064B4FF480125F
:10681000C3F80021204602B070BD0424F0E700BF99
:1068200044A7002000E100E0024B4FF43C6043F03D
:106830000103184700170300F8B51F491F4B002537
:10684000C1F84051C1F84451C1F84851C1F84C5108
:10685000C1F80051C1F804511B684BB3D1F804458D
:1068600017490968641A24F07F442F461A68A24227
:1068700009D8A41A15441A7CDE691AB11F74D3E929
:1068800005209047AEB90F4B0F4A197813788B4209
:1068900005D10133DBB2022B08BF0023137012783D
:1068A0000A4B43F822500A4B4FF48012C3F80021E0
:1068B000F8BD3346DAE700BF0010014064A80020AD
:1068C00060A800205CA800205DA8002054A800203B
:1068D00000E100E02DE9F74F9C4A9D4913780978C3
:1068E0009C4D99423CD00133DBB2022B08BF002300
:1068F000137099491278994B0F6853F822003B188E
:1069000023F07F4300220B602B6816461446944602
:1069100013B942B12B6006E0196881420ED902B169
:106920002B60091A19604FF001082B68DFF834A2B8
:1069300000930027BEB9DFF834B260E0401A0C447F
:10694000D968C3F800C0D3F81CE031B13A1922F07D
:106950007F42C3E90121DE611E4601227346D7E76B
:106960000026B046E1E73446F6697B4A6368126860
:10697000DFF8FCC1A068991A21F07F41614500F25F
:10698000A58001442160012222742A680023C4E901
:106990000133E361002A40F0A2802C60CAE75A1C50
:1069A0009BF80210D2B291428BF8002004BF002263
:1069B0008BF80020182202FB03B32A6819799C681F
:1069C000022974D003297ED0012918D1217CB1B9C4
:1069D000DA6862601A69A2605A69E2609B69A36121
:1069E0005F4B1B78002BC0D06160BEE79C4200F07B
:1069F00090809946DB69002BF8D1002323749BF823
:106A000000309BF801209A42C9D12B682FB9009A17
:106A1000934202D1B8F1000F43D0002B41D0D3F8FC
:106A200000A0504D4C4BD5F804751C68DFF844812C
:106A30003E1B98F8003026F07F4603369BB94FF492
:106A40008033C5F84433C5F80433474B4FF4003264
:106A50004FF00109C3F880211A60C5F80090FFF7D4
:106A6000E3FE88F80090B2452CBF5444A41924F0EA
:106A70007F44C5F84045D5F80435DB1B23F07F4340
:106A8000E41B033324F07F44A3420AD9D5F804352C
:106A9000C5F84035FFF7C8FE334B4FF40032C3F85A
:106AA00000212F4B00221A7003B0BDE8F08F13466F
:106AB0009146A0E71174D2690123002AFAD1002B74
:106AC0009DD02A609BE700231946F6E7D31A23F0EE
:106AD0007F43834234BFC31A0023236053E72168F6
:106AE0001368994213D8591A1160E26155E7091ADF
:106AF000D8691A4638B1034618688842F7D3401A55
:106B00001860184613462160E061DC6112E7134605
:106B1000F2E74C450DD1D3692B6053B90E48019271
:106B20000121CAF8081003600D4B1970FFF77CFEB5
:106B3000019AE1692368C9F81C1011B1086803447F
:106B40000B602B689A4218BF012756E75CA800200B
:106B50005DA8002064A8002060A8002054A80020A0
:106B600050A800200010014000E100E044A70020F0
:106B7000FEFF7F0051A80020F8B5194E194D1A4F9D
:106B80004FF40033C6F8803001244FF48033C5F849
:106B90004833C5F808336C60FFF746FEAC6000244C
:106BA0003C60FFF741FE114B1C70114B0B221C8007
:106BB0009A70104B1C60104B1C70104B4FF48012DD
:106BC0001C70E023C6F8802186F814333260C5F8C3
:106BD000084586F81133D5F804353B602046F8BDEA
:106BE00000E100E00010014060A8002051A8002052
:106BF00044A7002064A800205CA800205DA8002015
:106C0000074B9B784BB132B128B10368187C20B98F
:106C100059745A617047072070470820704700BFB9
:106C200044A700202DE9F7431D4FBB7805460E46CB
:106C300090469BB390B304292ED9436973B3437C28
:106C400002A80024012B00F8014D0CBF8946A14683
:106C500000F04AF80DF10600FFF7A8FDD0B10123BE
:106C60000370104B4560D3F80435C0E90498C0E9BF
:106C700002369DF806307B709DF8070000F064F83E
:106C800024B9094B4FF48012C3F80021204603B009
:106C9000BDE8F0830424EFE70724F7E70824F5E7CD
:106CA00044A700200010014000E100E0064A92786D
:106CB0003AB130B1426922B1002202740221FFF7D9
:106CC0008BBD0820704700BF44A70020EFF3058369
:106CD000C3F308032BB9EFF31480C04300F00100A5
:106CE000704701207047000070B50446FFF7EEFFC3
:106CF000012803D01049432004F09EF8EFF31086DA
:106D000072B60E4A9068012398B993600C4B0D4DF2
:106D1000D3F8801029401160C3F88050D3F8841054
:106D200051604FF0FF32C3F88420207006B962B67C
:106D300070BD2370FAE700BF061703003CB30020C4
:106D400000E100E0FC06FFBD10B50446FFF7BEFF02
:106D5000012803D00949512004F06EF8084B9A68C5
:106D60005AB154B9EFF3108172B6064A1868106030
:106D7000586850609C6001B962B610BD06170300E8
:106D80003CB3002000E100E0024B1B680021986842
:106D900004F060BDD49800201EF0040F1CBFEFF378
:106DA00009800AE0EFF308800549064A884201D8C5
:106DB000904202D88D464FF00000034B1847000068
:106DC0000000012000E00020CD6D02002DE9F34716
:106DD000054601F065F800F087FE0028FBD12F4B37
:106DE0002F4C9F6A2F4BE41AE408240444F001045A
:106DF000002D4ED0AA692C49204600F0F9FFEB681F
:106E00000193AB6800932949D5E90023204601F09E
:106E10000FF8EB6900932649D5E90423204600F0DA
:106E2000FBFF1E4BDB6A980703D52249204600F082
:106E3000DBFFDFF89490DFF894A000264FF0010804
:106E400008FA06F33B4206D059F826201AB15146FB
:106E5000204600F0CDFF01361A2EF1D1390605D5B6
:106E60000E4B15495A6B204600F0C2FF3A0405D577
:106E70000A4B12499A6B204600F0BAFF104B1B6870
:106E8000DB0700D500BE2846FFF71EFB02B0BDE8B9
:106E9000F0870C49204600F0A7FFC2E700ED00E0B4
:106EA00008320300A03103005B17030070170300D2
:106EB000A5170300001803004F1803006F18030004
:106EC000F0ED00E0CD1703008C1803004418030018
:106ED00050E8002F0B4640E8003C9CF0000FF7D133
:106EE0001046704750E8003F43EA010240E8002C9A
:106EF0009CF0000FF6D11046704750E8002F02EAD0
:106F0000010340E8003C9CF0000FF6D110467047AA
:106F100050E8003F03EB010240E8002C9CF0000F1A
:106F2000F6D11046704750E8003FA3EB010240E85D
:106F3000002C9CF0000FF6D1104670470121FFF79E
:106F4000D1BF0021FFF7D9BF10B50446002834D0C7
:106F500003681BB91A49FF2003F06EFF636823B969
:106F600017494FF4807003F067FFA36823B91449F1
:106F700040F2011003F060FFE36823B910494FF4B9
:106F8000817003F059FF238A23B90D4940F20310A1
:106F900003F052FFD4E9012321689B1ADBB20A6097
:106FA000013BDBB2FF2B226802D10020107110BD23
:106FB0001168481C10600B70F2E70E20F7E700BF65
:106FC000B41D030037B5054620B914494FF492703B
:106FD00003F032FF02A8002400F8014DFFF784FE01
:106FE0002A68696813688B4210D9591E116013F81A
:106FF000014C2A8AEB6802FB04342A68AB681168EA
:107000005B1A1179DBB2994238BF13719DF8070002
:10701000FFF79AFE204603B030BD00BFB41D030049
:1070200037B50C46054620B9104940F2471003F029
:1070300003FF24B90D494FF4A47003F0FDFE02A82C
:10704000002300F8013DFFF74FFE2A681368591C22
:107050001160EA68A41A2A8AB4FBF2F41C709DF845
:107060000700FFF771FE03B030BD00BFB41D030081
:1070700038B5084C04F108030546002818BF1C4623
:1070800023682BB11A6822605B6828469847F7E7A7
:1070900038BD00BF70A8002020B9054B01225A70EE
:1070A000FFF7E6BF012802D1014A9070F8E7704768
:1070B00068A8002020B9034B01225A70FFF7D8BFFF
:1070C000704700BF68A8002038B50B4C237883B9FF
:1070D0000A486360A3602361E36001F019FC054680
:1070E00003F010FC08B901F029FC012323702846A5
:1070F00038BD8525FBE700BF68A800209970020015
:1071000013B5154C237823B914494FF4857003F057
:1071100093FEE36823B9114940F20B1003F08CFE93
:1071200002A8002300F8013DFFF7DEFDE368013B04
:10713000E360E36853B903F0E5FB18B10749792030
:1071400003F07AFE01F018FC0023A3709DF80700FD
:10715000FFF7FAFD02B010BD68A80020041E03006E
:10716000012813B509D003D303281BD002B010BDEA
:10717000134B0122C3F88020F8E702A80023114C2A
:1071800000F8013DFFF7B0FD23780BB9FFF79CFF36
:10719000E3689DF807000133E3600123A370FFF764
:1071A000D3FDE3E7074B1B7823B9074940F245209D
:1071B00003F042FE01F0C2FBFFF7A2FFD6E700BFDB
:1071C00000E100E068A80020041E03001FB503785A
:1071D0008DF8003003798DF8043043798DF805304F
:1071E00083688DF80630C3688DF807300369029311
:1071F00043690393054A064B684653F8213052F819
:107200002110984705B05DF804FB00BF7CA8002062
:1072100084A8002002494FF4F37003F00DBE00BFB4
:10722000661E03001F2810B5044601D9FFF7F2FFC0
:10723000012303FA04F44FF0A043C3F8084510BD3E
:10724000024B4FF4807043F001031847601E0300A7
:107250002DE9F14F924690F80080364A42F828A076
:10726000354A42F828304B7B81460C467BB30B688D
:107270004FF0A04503F5E07340F20C6245F823207F
:107280004B6803F5E073002645F823200868FFF7F4
:10729000C9FF6068FFF7C6FF236803F5E07340F29B
:1072A0000D6245F82320636803F5E0734FF0010B8E
:1072B00045F82320FFF7C4FF67681F2F01D9FFF7A8
:1072C000A9FFD5F81035FB40DB070ED506BBBAF198
:1072D000000F1A4A434608BF0022214609F1040064
:1072E00001B0BDE8F04F02F065B827681F2F01D943
:1072F000FFF790FF0BFA07F7C5F80C75FFF7A0FF33
:1073000001362068FFF78EFFFFF79AFF092ED3D1D1
:1073100065681F2D01D9FFF77DFF4FF0A0420123C3
:10732000AB40C2F80C35FFF78BFF6068FFF77AFFC0
:10733000CDE700BF84A800207CA80020CD7102000A
:1073400010B5044618B90649312003F075FDA2684E
:107350002AB163692168206998470023A36010BDA2
:10736000A91E03000EB433B5059D044618B9124991
:10737000422003F061FD63691BB90F49432003F00C
:107380005BFD23681BB90C49442003F055FD63687D
:107390001BB90949452003F04FFD3DB102AA06ABD8
:1073A00042F8043D2946204600F06EF802B0BDE8E0
:1073B000304003B0704700BFA91E0300826830B49C
:1073C0000468551C8560A154D0E901329A4202D369
:1073D00030BCFFF7B5BF30BC704700002DE9F84F57
:1073E0009946DDE90A431746824688460A46012641
:1073F000BA420FD24E4538BF4E4613F0010B01D1B1
:1074000064B900240125B9F1010F1AD909F1FF3936
:107410007D43F8E7B2FBF7F20136E9E79B070ED5AB
:10742000B9F1000F0CBF30252025A642EAD2013C5D
:1074300029465046FFF7C2FF002CF6D1E1E7202590
:10744000F3E7B8FBF5F39F42E2D9DFF83890B8FBD9
:10745000F5F3504619F8031005FB1388FFF7AEFF4C
:10746000B5FBF7F5002DF2D1BBF1000F02D00CB146
:10747000A64201D3BDE8F88F20215046013CFFF71A
:107480009DFFF4E7EF1E03002DE9F74F0E469046EF
:10749000054620B9AC494FF4A27003F0CDFC6B69EE
:1074A00023B9A9494FF4A37003F0C6FC2B6823B994
:1074B000A54940F2471003F0BFFC6B6823B9A2490D
:1074C0004FF4A47003F0B8FC002E00F03A8116F8D7
:1074D000011B002958D0252940F0D180002702E067
:1074E00047F001071646324612F8013B2D2BF7D024
:1074F000302B04D02B2B05D147F00407F2E747F0DF
:107500000207EFE700242A2B06F101021BD1D8F86D
:107510000030191DC8F800101B6816461C4433784B
:107520002E2B1CD101364FF0000A314611F8012BE9
:10753000A2F13000092814D80A2303FB0A23A3F17F
:10754000300A0E46F1E712F8013CA3F13001092997
:10755000E5D80A2101FB0434303C1646D3E74FF04E
:10756000000A324612F8011B01F0FB00682816469B
:10757000F8D0692916D054D8582970D00ED82529AA
:107580007DD03378002BA2D12B7B002B00F0D9804B
:10759000284603B0BDE8F04FFFF7D2BE632968D09C
:1075A0006429EED1D8F80020111DC8F80010D2F8D7
:1075B000009089EAE972A2EBE9724FF0010B092A07
:1075C00061DCD34538BFD3462CB1B9F1000F01DBE4
:1075D000790700D5013CBA0702D5BAF1000F04D0F3
:1075E000FB0702D4002C54D10024B9F1000F58DA63
:1075F000C9F100092D212846FFF7E0FE07F003023C
:10760000022A05D1BAF1000F02D1002C4DD100247D
:10761000CDE9004753460A2249462846FFF7DEFED9
:10762000AFE7732954D016D87029AAD1D8F8003002
:107630001A1DC8F80020302128461C68FFF7BEFE3E
:1076400078212846FFF7BAFE00220823CDE9003250
:1076500021461022E1E775292FD0782991D1D8F859
:1076600000100A1DC8F80020CDE90047534610223B
:107670002CE0D8F800301A1DC8F8002019782846E8
:10768000FFF79CFE7DE70A230BF1010B92FBF3F25F
:1076900095E7A345A9D220212846013CFFF78EFE9D
:1076A000A0E77807AAD52B21A5E7A345B0D23021C2
:1076B0002846013CFFF782FEA7E7D8F80010CDE985
:1076C00000470A1DC8F8002053460A220968A4E7AB
:1076D000D8F800301A1DC8F80020F907D3F8009038
:1076E00012D54F46A7EB090B17F8011B41B9A3456B
:1076F000BFF447AF20212846013CFFF75FFEF6E7C5
:107700002846FFF75BFEEDE7B9F1000F17D04846BA
:1077100004F0D6F90746BC4200D954B909F1FF3943
:1077200019F8011F00293FF42CAF2846FFF746FE49
:10773000F6E720212846013CFFF740FEEBE74F46E5
:10774000E9E703B0BDE8F08FFF1E030070470000BB
:1077500007B5044B0093044A402300F032F803B00D
:107760005DF804FB6D7702008DA800202DE9F84339
:1077700089461446B2B10F4B0F4E0325002743F044
:107780000108224609EB07010020FEF7A5FF074488
:10779000241A48B933782BB14FF47A40C047013DE1
:1077A00002D13570BDE8F88301233370002CE8D195
:1077B000F8E700BF601F03008CA800207047FEF7A9
:1077C000DDBFF0B595B01C46164608460D4600F0E4
:1077D00032FD1A9B0D93CDE908640024234608224C
:1077E00005A928460A948DF82C400C9400F04CFD15
:1077F000079B0293BDF81830ADF80C30BDF81A3075
:10780000ADF80E309DF814308DF8114003F00302EE
:10781000012A1DD1BDF81440059EC3F3C203C4F371
:1078200083148DF81030A20008230EA9284600F01A
:107830002BFDC6F3952608AB0093224602AB0EA99A
:10784000304600F09DFB284600F0F9FC15B0F0BD75
:10785000022AF8D1BDF81640C3F3C203A4098DF87B
:1078600010300827082C264628BF08263B463246FB
:107870000EA9284600F008FDA41B08AB02AA314659
:107880000EA8374400F0E0FB002CEBD1DBE7000052
:1078900008B5FFF794FF0421064800F0D7FA002846
:1078A00003DA0549412003F0C7FA044B01225A715B
:1078B00008BD00BFC0320300741F0300BC98002045
:1078C000037813F0040216D003F00303012B03D056
:1078D000022B09D0012070470A6800880232C0F3E9
:1078E000831002440A60F5E70B684288023303EB19
:1078F00092130B60EEE71046704700002DE9F04F41
:1079000089B00646871C08A8484C009200230D4603
:1079100000F8113DFFF7E8F923682B60D4E9012353
:107920001344226801339B1A04F21C4804F5836B4C
:1079300004F21449BB421AD3009A0023002A6DD0E6
:10794000012262F3010343F0040366F38913216803
:10795000A2689DF80F000A4003320F4444F8223019
:107960002760FFF7F1F9012009B0BDE8F08F012190
:107970004046FFF7CDFA5846FFF7E0FA0DF1200A2E
:107980004846FFF7DBFA60684AF8100DA568284002
:10799000033004EB80005146FFF792FF0246049843
:1079A000002AF4D105EA000304EB8303811CDB68A1
:1079B00005930130054004EB850503F00303012B1B
:1079C0000491ED6823D0022B08D0194901924FF49D
:1079D000BF7003F031FA019A154607E0BDF8163082
:1079E0009B0903332D0C01EB930304934846FFF7E7
:1079F000A8FA08B1049B636029464046FFF788FA5D
:107A0000D4E901231344226801339B1A92E7BDF89D
:107A10001430C3F383132D0C0B44E6E7022262F308
:107A2000010343F0040366F39F5390E7A0A90020ED
:107A3000E31F03000B4B0C48FF2210B59A60002295
:107A4000C3F81824C3E90022C3F81424012283F8E0
:107A5000202400F0A9FB044610B9044800F040FCC3
:107A6000204610BDA0A90020383203003C200300AE
:107A700030B50A4C71B10A4A0A49121BD2080023D8
:107A80009A4201D1002030BD31F82350854202D006
:107A90000133F5E7034654F83300F4E7A03103005F
:107AA0003832030090A20020094B013903EBC000DB
:107AB000032909D8DFE801F00A0204060420704710
:107AC0000079704740797047002070470220704766
:107AD000A0310300034BD3E90030C31A5842584188
:107AE000704700BFA0A900202DE9F04387B0FFF741
:107AF000F1FF0646002840F0FC807F4DC5F81804D1
:107B0000BFF34F8F6868AC6806AF47F8100D204090
:107B1000033005EB80003946FFF7D2FE029B18B117
:107B2000D5F81824002A5FD004EA0302991C013317
:107B300005EB8202234005EB8303D268DB680493E4
:107B400002F00303022B0392029162D1BDF80E30C2
:107B50006A484FEA9318B8F1500FC14628BF4FF05A
:107B6000500969F38F1309F10801ADF80E3000F0E8
:107B700033FB0746002800F0A78000F05CFB03A958
:107B800000230822384600F069FB029924EA010626
:107B90000136B600B14535D95FFA89F97EB3F6B240
:107BA000A9EB0609214003315FFA89F4B146544E2E
:107BB00005EB810108234A46384600F04FFB36B1F9
:107BC00009F1080322463146384600F047FB029B84
:107BD00008F1030803EB98030293D5F81834002B3F
:107BE0004BD1D5F810445BE02A689A4204D86A6009
:107BF000304607B0BDE8F08304EA030088E7404957
:107C00003446D7E72140033108234A4605EB81017A
:107C1000DAE7012B58D1BDF80C303848C3F3831193
:107C2000062928BF062161F3891302318900ADF8C6
:107C30000C3000F0D1FA0746002845D000F0FBFADE
:107C40000023082203A9384600F008FB0026BDF8EF
:107C50000C20C2F38312B31C96424FEA8303BCD2BA
:107C600002994A1C21400331029205EB8101042252
:107C7000384600F0F3FA0136E9E7384600F0DFFA5B
:107C8000FFF728FF80F00100C6B2B1E7E3685B7937
:107C900023B1236839461B6820469847E3681C686F
:107CA000002CF3D1384600F0CAFA06A800F8114DAE
:107CB000FFF71AF8D5F818340BB9029B6B609DF8E2
:107CC0000700FFF741F8DBE7D5F8104454B90D4B36
:107CD0000D480E49C01AC008000440F0020000F030
:107CE00083F8CDE7236820469B689847E3681C68C3
:107CF000ECE700267CE700BFA0A900203832030093
:107D0000ACA90020A0310300F83103004820030093
:107D10002DE9F74F2F4C80460F46914601A90122CD
:107D200018469B46D4F808A0FFF7E8FD00283DD090
:107D3000019D0026A91C5E4506EB010240D10021F1
:107D40002548FFF7C5F880F3100B244B244A4FEA6F
:107D500018499B1AB9EBD30F04D3224940F2A31060
:107D600003F06AF86B1C03EA0A0304EB830349EA95
:107D70000B42DA6005EA0A030333012114F82320D9
:107D800068F3C50204F8232034F8232066F389122F
:107D900024F8232054F8232067F39F2244F823205B
:107DA00061F301026FF3820204F8232094F8203477
:107DB0001BB1FFF799FE0028FBD103B0BDE8F08F9F
:107DC0000AEA020204EB820259F82630D360013637
:107DD000B1E700BFA0A90020BCAD002038320300ED
:107DE000A0310300E31F030000231A46FFF790BFF2
:107DF00013B502AC012344F8042D2246FFF788FF97
:107E000002B010BD07B5CDE9002302236A46FFF793
:107E10007FFF03B05DF804FB1FB5CDE90123069B8E
:107E2000039301AA0323FFF773FF05B05DF804FB7A
:107E30001FB5CDE90023069B0293079B03936A4677
:107E40000423FFF765FF05B05DF804FB30B5134A66
:107E5000D2F810440023214651B9C4682371D2F8E6
:107E600010445CB9C2F81004C2681160184630BDF5
:107E7000C9680D799D420AD00968EDE7E468C168D8
:107E800024680C60D2F81024D2681060EEE7013349
:107E90000A2BE0D14FF0FF33E8E700BFA0A9002094
:107EA00038B5094A0123D2F8104482F820341D461F
:107EB00004B938BDE3685D71236820465B68984764
:107EC000E3681C68F4E700BFA0A9002010B5037A9E
:107ED000052B0C460FD0437A23B1084A08492046A7
:107EE000FFF740FA07492046FFF73CFA2046BDE875
:107EF0001040FFF725BA002AF8D0F3E793200300DB
:107F000098200300B820030073B5C38804460D46CB
:107F100033B1144A00921449144A2846FFF722FA52
:107F2000217A05291CD0637A4BB1A088FFF7BCFDEC
:107F30000F4B104953F820202846FFF713FA227AF6
:107F40000D4BA08853F822600021FFF791FD0B49EB
:107F500003463246284602B0BDE87040FFF702BA39
:107F600002B070BD93200300A32003009B200300F8
:107F70006020030098200300C8200300BB200300FA
:107F80002DE9F04385B01F460C9D002306460C46A4
:107F9000904695F80C902B7329463846FFF7B4FFAE
:107FA000B8F1060F09D8DFE808F00412181F2833CB
:107FB000400031462846FFF7D5F9002229463846C9
:107FC000FFF784FF85F80C9005B0BDE8F0832268C8
:107FD00031462846FFF7C6F9EFE7D4E900233146DA
:107FE0002846FFF7BFF9E8E7A36800933146D4E9D4
:107FF00000232846FFF7B6F9DFE7E3680193A3689B
:1080000000933146D4E900232846FFF7ABF9D4E7C3
:1080100023690293E3680193A36800933146D4E98E
:1080200000232846FFF79EF9C7E763690393236996
:108030000293E3680193A36800933146D4E90023D7
:108040002846FFF78FF9B8E708292DE9F84F804651
:108050000E4617461C4635D8002593F80C901D7324
:1080600019461046FFF750FFDFF88CA0DFF88CB000
:10807000AE4229D918F8052059462046FFF772F973
:108080000135082DF4D11A49DFF874B02046FFF706
:1080900069F94FF0000A564524D918F80A507E2D88
:1080A00017D92E2259462046FFF75CF90AF1010A3A
:1080B000BAF1080FEFD1012221463846FFF706FF3B
:1080C00084F80C90BDE8F88F51462046FFF74AF936
:1080D000D6E703F071FA2844427812F0970FE0D007
:1080E0002A46DFE703492046FFF73CF9DEE700BFF9
:1080F0008E2003008C2003008A20030084200300CC
:10810000902003002DE9F74F99469DF830300193F8
:1081100088461746054618B92249B62002F08CFE5B
:10812000EA8895F805B00BFB02FBABF1040BCB45DD
:1081300003D81C49C42002F07FFE3E68B5F806A0B3
:1081400006EB09025A4509F1040188BFABEB0906A9
:10815000B1FBFAF43E600AFB141144B9AAEB010723
:10816000B74228BF37462EB903B0BDE8F08F2D685F
:10817000013CF2E7019A043108EB0403681872B17C
:1081800001463A461846F61B03F06CFAB2453C44E9
:108190002D6857464FF0000128BF3746E3E73A46BF
:1081A0001946F0E727210300FEF7CEBEF8B5467961
:1081B0000146721E0546002393422D6803D3002416
:1081C000A64202D8F8BD0133F6E70F682846FEF74D
:1081D00027FF01343946F3E72DE9F843CD1C068A21
:1081E0000746FEF7EFFE043E35440446B5FBF6F5C0
:1081F000F0B14FF48073EDB28380C680013D07601B
:1082000081464FF00008A84512D23846FEF7DAFE44
:10821000064648B163790133637108F10108C9F872
:10822000000007608146EEE72046FFF7BFFF3446B7
:108230002046BDE8F88301210430FEF769BE10B581
:10824000012104460430FEF76EFE10F0FF0F04D14A
:108250002046BDE81040FFF7A9BF10BD30B585B07E
:10826000144604AA002542F8044D0095FFF74AFF82
:10827000039BA34203D00349F62002F0DDFD05B0C5
:1082800030BD00BF2721030030B585B0144604AAD5
:10829000012542F8044D0095FFF734FF039BA342EC
:1082A00004D003494FF4807002F0C6FD05B030BD24
:1082B00027210300064B10B500241C70054B1C60E1
:1082C000BFF35F8F0449054800F012F9204610BD46
:1082D00064AE002068AE0020782103005CAE002070
:1082E00082680023936082681361826853618268A8
:1082F000D3608268536082681360704702681368B5
:108300005268934291BFD01A80680130801888BFAC
:10831000C01A704738B50C46054618B9044977208D
:1083200002F08AFDAB68A3428CBF601C002038BD00
:108330008D21030038B5044618B907498A2002F098
:108340007BFD236820461D685968FFF7E3FF431B48
:108350005842584138BD00BF8D2103002DE9F3413B
:108360000D46044618B92E49952002F065FD1DB949
:108370002B49962002F060FD02A8002300F8013D81
:10838000FEF7B2FC2046FFF7D5FF804610B1237CF4
:10839000002B3BD1276820467E687968FFF7BAFF3B
:1083A0007860B8F1000F05D0276820463968FFF7DC
:1083B000B1FF3860E2686068531E072B20D8DFE801
:1083C00003F004101F141F1F1F182B78835520461D
:1083D000FFF794FF23689A68824200D298600024D5
:1083E00015E02B8820F81630F1E72B6840F826308E
:1083F000EDE7D5E9002300EBC600C0E90023E6E77E
:10840000294606FB020003F02DF9E0E704249DF85D
:108410000700FEF799FC204602B0BDE8F08100BFDE
:108420008D21030010B5044620B9064940F20A2008
:1084300002F002FD236818685B68C31A584258416D
:1084400010BD00BF8D2103002DE9F3410C4690467D
:10845000054618B92549D92002F0EEFC1CB923497C
:10846000DA2002F0E9FC02A8002300F8013DFEF743
:108470003BFC2846FFF7D6FF002834D12F683E6822
:10848000B8F1000F04D139682846FFF743FF386080
:10849000EA686968531E072B1FD8DFE803F0040F52
:1084A0001E131E1E1E178B5D237000249DF80700EF
:1084B000FEF74AFC204602B0BDE8F08131F81630E4
:1084C0002380F2E751F826302360EEE701EBC60186
:1084D000D1E90023C4E90023E7E706FB02112046A7
:1084E00003F0C0F8E1E70524E0E700BF8D210300B9
:1084F00038B50D46044618B90849502002F09CFCD6
:108500001DB90649512002F097FC25602B68636075
:108510006A68934204BF0023636038BDDB21030017
:1085200010B5044618B90B49632002F085FC236896
:108530001BB90849642002F07FFC636843B12268DC
:1085400091680B4463605268934204BF00236360E8
:1085500010BD00BFDB2103000D4930B5A1F59472B9
:108560000225914201D800200EE08B1ADB1093FB0C
:10857000F5F302EBC30452F83330834205D802D23C
:1085800004F10802EDE7606830BD2146E9E700BF6D
:108590008023030008B5FFF7DFFF024B002808BF68
:1085A000184608BD44220300C0B2002348700B7077
:1085B0007047000070B50D46044618B9084971208F
:1085C00002F03AFC23681A6812683AB11A681B680C
:1085D00051681B682846BDE87040184770BD00BF51
:1085E0003A270300F0B5044687B018B92D49372063
:1085F00002F022FC2368187E1A68C0B207B296689F
:108600004FEAC70C06EB0C0256F837605179177920
:10861000927912F0010F4FEA510501F0010139D0B2
:10862000002937D1D3F800E09EF80CE00130704506
:1086300030DAD3F800E00CF10800DEF808C084441A
:108640009CF805C0B5EB5C0F24D11A6891680A1834
:1086500051F800C0187E517992F804E09279013007
:1086600011F0010F4FEA4212C0B20CBF03210221E8
:1086700002F0200218768DF8041004F10C0001A914
:108680008DF80550CDE9027ECDE9046C00F0EEFFD7
:1086900007B0F0BD52014FF0000C02F02002E64698
:1086A000E9E700BF3A2703002DE9F74F0E460446DD
:1086B00018B92949872002F0BFFB2568DFF89CB074
:1086C0004FF0000802A800F8018DFEF70DFB16B967
:1086D00023681B6843B9002229466068FFF7B4FE8F
:1086E00090B3C5F8008000269DF80700FEF72CFB2C
:1086F0007EB32B681B694BBB2F1D1022394668695E
:1087000002F07EFFA8B104F10C0A504604F10809FA
:1087100000F050FF23465A4639464846FEF798FD7A
:1087200018B10D49B42002F087FB504600F0F8FE66
:108730006F6185F818802046FFF754FF014640B16D
:108740002046FFF737FFBDE70126CDE72B681F69FD
:10875000D3E703B0BDE8F08F3A270300618702003A
:1087600038B50C46054618B91249D22002F064FB10
:1087700023681B681BB90F49D82002F05DFB2978DC
:1087800071B92268137E10680133007BDBB2984216
:1087900007D913762046FFF725FF014608B938BDF3
:1087A00003212046FFF706FF20460121BDE838409F
:1087B000FFF77ABF3A270300F8B50E46044620B902
:1087C00019494FF4847002F037FB636823B91649E6
:1087D00040F2091002F030FB63689B6823B912492C
:1087E0004FF4857002F028FB26B90F4940F20B10B8
:1087F00002F022FB23460D4A314604F10800FEF741
:1088000027FD074670B904F10C0000F089FE2368CB
:108810001F6096E80F002568043585E80F0023687F
:108820001A1D5A613846F8BD3A27030061870200D5
:1088300037B50546019120B9144940F22D1002F0D8
:10884000FBFA019B23B911494FF4977002F0F4FA37
:10885000019B9B6823B90D4940F22F1002F0ECFAFE
:10886000019B1B7B23B909494FF4987002F0E4FA8D
:1088700001A96868FFF772FD044618B90146284649
:10888000FFF712FF204603B030BD00BF3A270300B8
:108890002DE9F04186B0884617461E460C9C0546D9
:1088A00020B9194940F24F1002F0C6FA27B916490B
:1088B0004FF4A87002F0C0FA26B9134940F25110E3
:1088C00002F0BAFA0023ADF8003001238DF8003031
:1088D00001A90E4B01932846CDF808D003978DF8D7
:1088E0001060CDF81480FFF7A3FF20B106B0BDE8FB
:1088F000F08104B1A0479DF80030002BF9D19DF81C
:108900000100C0B2F2E700BF3A270300A9850200C8
:1089100010B5044618B90749A02002F08DFA064B9D
:10892000187920B901221C601A71587110BD852078
:10893000FCE700BF8E2703006CAE002008B50B4B90
:108940001B791BB90A49B92002F076FA094B1A685B
:10895000D2075FBFE02283F8002301221A604FF0A4
:1089600080430122C3F8182508BD00BF6CAE00206B
:108970008E27030000E100E008B5084B1B791BB906
:108980000749F32002F058FA064B01221A604FF013
:108990008042D2F81834DB03FBD408BD6CAE002053
:1089A0008E2703000C00004007B5154B1A687AB1FA
:1089B00000221A601B680093009B4FF08043012245
:1089C000C3F808230F4B587910B95A711B689847A0
:1089D0000D4B1A6882B100221A601B680193019B3B
:1089E0004FF080430222C3F80823064B1B68012086
:1089F00003B05DF804EB184703B05DF804FB00BF5B
:108A0000000100406CAE00200401004000F18040F5
:108A100000F5C040002382B0036003680193019B0E
:108A200002B07047054B4FF0FF32072843F8202073
:108A300084BF1B1883F84820704700BF74AE002025
:108A400002494FF4F37002F0F7B900BF661E03004D
:108A50001F2838B504460D4601D9FFF7F1FFA000E5
:108A600000F1A040D0F8003723F44033C0F80037BD
:108A7000D0F8003743EA0543C0F8003738BD00009E
:108A800010B5164C94F8583033BBFF21E21801336F
:108A9000202B82F83010F9D10021C8B2FFF7C2FFB5
:108AA00001310C29F9D1042200210D4802F074FE95
:108AB0000C4BE02283F8062340221A604FF4BE706C
:108AC000FFF7A4FF084B4FF00042C3F80423012333
:108AD00084F85830002010BD0820FCE774AE002058
:108AE000C8AE002000E100E000600040034B93F8B6
:108AF0005800003018BF0120704700BF74AE00203E
:108B00001F2870B504460D4604D941494FF49870AA
:108B100002F092F93F4E96F85830012B04D03C49B0
:108B200040F2311002F088F925B939494FF49970B3
:108B300002F082F9331993F93020013265D1AA7815
:108B4000002A54D0002356F8231001314FEA830243
:108B500048D1311902F1804281F83030002102F50C
:108B6000C04246F82310D2F810052B78697820F41B
:108B700098101B04090520F4F85001F4801103F447
:108B80004033C2F810050B432102D2F8100501F45E
:108B9000F8510B430343C2F810356B78012B4FF0AB
:108BA000010528D11F2C01D9FFF74AFF4FF0A04340
:108BB000A540C3F808551F2C01D9FFF741FF04F564
:108BC000E0724FF0A043032143F82210E20812495B
:108BD000012304F0070403FA04F48B5C1C438C5457
:108BE000002003E00133082BADD1042070BDFE222C
:108BF00083F83020D1E71F2C01D9FFF721FF4FF078
:108C0000A043A540C3F80C55D5E70820EEE700BF08
:108C1000E127030074AE0020C8AE00201F2838B53D
:108C2000054604D912494FF4BE7002F005F9114C03
:108C3000621992F93020013204D10D4940F27D10C1
:108C400002F0FAF8631993F83030072B04D808497A
:108C50004FF4BF7002F0F0F81F2D01D9FFF7F0FEBE
:108C6000012303FA05F54FF0A043C3F8085538BDBA
:108C7000E127030074AE00201F2838B5054604D94B
:108C800012494FF4C37002F0D7F8114C621992F9EF
:108C90003020013204D10D4940F2871002F0CCF8A7
:108CA000631993F83030072B04D808494FF4C47087
:108CB00002F0C2F81F2D01D9FFF7C2FE012303FA0B
:108CC00005F54FF0A043C3F80C5538BDE12703006C
:108CD00074AE00202DE9F04F87B000245B4A5C4E53
:108CE0005C4D039401211368A2F5C040012B80B2B2
:108CF00006D1D6F804330B4202D0FFF787FE0C43AF
:108D00000432AA424FEA4101EDD1534B1B68012BBB
:108D10000AD14FF4BE70FFF779FE4FF0A04344F044
:108D20000044D3F81035039314F0FF0F1AD04B4FC3
:108D300000250126344210D0AB0003F1804303F537
:108D4000C043D3F81005D3F8101557F82530C0F3F9
:108D50000420C1F3014103B198470135082D4FEAC2
:108D60004606E7D1002C6EDA00224FF0FF33CDE942
:108D700004233A4F4FF0000A56464FF0A04907EB44
:108D80000A0393F95040631C46D0E4B2012224F058
:108D9000C00504F0070B02FA0BFBEB0806AAD1187A
:108DA00011F8042C12EA0B0F36D07A19A40992F9A3
:108DB000302057F82280B8F1000F0AD1032C2BD1B4
:108DC0000DF1100C1CF8030040EA0B000CF8030036
:108DD00001E0032CF4D01F2D03D90191FFF730FEE1
:108DE000019911F80C1C05F5E07311EA0B0F59F805
:108DF0002330C3F3014320D0022B0DD1032C05D126
:108E000021462846FFF724FE0136F6B2B8F1000FDE
:108E100002D021462846C0470AF1010ABAF1040FE0
:108E2000ADD186B14FF0A043039AD3F810359A42E2
:108E300009D00393049B05939CE7032BECD1032CEF
:108E4000E4D10221DDE707B0BDE8F08F006100400A
:108E500000600040206100407C61004074AE002052
:108E600010B5054C22681AB90449512001F0E4FFFD
:108E70002368BDE810401847D0AE00203A28030010
:108E800037B50D4630B90F49772001F0D5FF0020E6
:108E900003B030BD0C4B9842F9D102A8002300F872
:108EA000013DFDF721FF094B1C7914B901221D601A
:108EB0001A719DF80700FDF747FF002CE7D011203D
:108EC000E6E700BF3A28030000200040D0AE0020B3
:108ED00018B906499B2001F0AFBF054B984201BF6E
:108EE000044B00221A601A71704700BF3A28030031
:108EF00000200040D0AE00200023435082B04358F1
:108F00000193019B02B0704770B5D0F8103105464F
:108F10000C4653B14FF48871FFF7EEFF63795A079F
:108F200003D523680BB101209847D5F814315BB104
:108F30004FF48A712846FFF7DFFF63791B0703D5DB
:108F400023680BB102209847D5F81C315BB1284645
:108F50004FF48E71FFF7D0FF607910F0100002D14E
:108F6000236803B19847D5F8043163B14FF4827197
:108F70002846FFF7C1FF0123237123681BB103209B
:108F8000BDE87040184770BD01490248FFF7BCBFFB
:108F9000D8AE002000C0014001490248FFF7B4BF2D
:108FA000E0AE00200010024001490248FFF7ACBFCC
:108FB000E8AE00200020024000F1804000F5E040D3
:108FC000002382B0036003680193019B02B07047E5
:108FD000F0B5514B514C1B6885B0DBB14FF482703A
:108FE00094F82E20FFF7E8FF12B194F82F30A3B1C8
:108FF000636802932389ADF80C30E36800218DF893
:109000000410002B44D12374236801A8984700233F
:1090100084F82F3094F82E3003B3414B1B68EBB12A
:109020004FF48070FFF7C8FF94F82D20638B91B246
:109030008B4238D95B1A21899BB26383CB1A616852
:1090400001EB4301374BC3F82C16C3F830264FF41D
:109050008270FFF7B1FF344B01221A60334B1B685B
:109060005BB14FF48870FFF7A7FF002304A82374B7
:10907000022300F80C3D236898472D4B1B6813B35F
:109080004FF48A70FFF798FF0023237405B0F0BDFA
:10909000208B608363602081E160002AB4D1214B82
:1090A00001221A60B0E7D2D1E368012184F82F10C1
:1090B0003BB1002161831B49C1F82C36C1F8302631
:1090C000C5E76383C3E766694FF000470125002EBB
:1090D000DCD0B6FA86F227FA02F34632920026EA8C
:1090E000030602F1804303F5E0431B68002BEED03A
:1090F0001046FFF761FFA2F58C72D30882F00402DC
:10910000C2F380028DF808308DF804508DF80920E4
:10911000236801A89847DAE704710040F0AE002008
:109120000071004000700040047000401071004069
:109130001471004002494FF4F37001F07DBE00BF8E
:10914000661E03001F2810B5044601D9FFF7F2FF81
:10915000012303FA04F44FF0A043C3F80C4510BDFB
:109160001F2810B5044601D9FFF7E4FF012303FAD5
:1091700004F44FF0A043C3F8084510BD13B54FF0F9
:109180004023D3F818310BB3114B124C00221A6054
:109190001B680193019B236823B90F494FF4277083
:1091A00001F04AFEE07FFF2803D0A37F5BB1FFF709
:1091B000C9FF002363772372D4E90031074802B066
:1091C000BDE810401847FFF7CBFFF2E702B010BD33
:1091D0001841004020AF00209728030028AF00204E
:1091E0002DE9F743002406460F4600F5A0754FF41D
:1091F0008038A14604F150002B68800080B26BB12A
:10920000D6F8043308FA04F21A4207D0C5F80090E1
:109210002B680193019BD7E9003198470134042C56
:1092200005F10405E6D103B0BDE8F0830149024829
:10923000FFF7D6BF44AF002000800040014902483C
:10924000FFF7CEBF50AF00200090004000234350F6
:1092500082B043580193019B02B07047F0B5504C67
:10926000236887B023B94F4940F2452001F0E4FD5F
:109270004D4AD2F824311546A3B14FF492711046ED
:10928000FFF7E4FFD2F8043163B9A368C2F80833EA
:109290000223A360A368C2F804330123136253615D
:1092A00007B0F0BDD5F80431002B49D03F4F3E4800
:1092B0004FF48271FFF7CAFF0FCF01AE0FC63B68B4
:1092C000336094F82E307BB1237B012B0CBFD5F893
:1092D0003C25D5F84C250292022B334B0CBFD3F81A
:1092E0003C35D3F84C3503934FF4B0712E48FFF75B
:1092F000ADFF4FF4AE712C48FFF7A8FF94F8303063
:1093000013B194F82E303BB1274B0022C3F8002252
:10931000A260274AC3F80823234AD2F8C434C2F80B
:10932000C4349A0736D501238DF8003094F83030D4
:109330000BB984F82F30D4E9003168469847AFE77D
:109340004FF4A4711848FFF781FF237B83B9174FAF
:109350000FCF01AE0FC63B68336094F83030002B5E
:10936000DAD1C5F80032A360114BC5F80833D3E752
:109370004FF40073C5F8003240F20223A36003F1FA
:10938000CE73C5F80833A368C5F804330123AB6076
:109390002B6285E713F0040318BF0223C4E700BF64
:1093A0005CAF0020EE2803000030004068AF0020D2
:1093B00002029C012DE9F74F8046934601930C462B
:1093C00019B95049A92001F037FDD4E900239A4288
:1093D00003D14C49AA2001F02FFD98F804704A4EA1
:1093E000342303FB07FA06EB0A0999F82D20002A1B
:1093F00040F083804549D8F80000FFF741FD05465D
:1094000000287CD146F80AB0019BC9F80800C9F8C9
:10941000043089F8300089F82F00637B89F83230F6
:10942000D4F80090B9F11F0F04D939494FF4F37003
:1094300001F002FD4FF0A04309F5E07940F20C6223
:1094400043F82920D4F804A0BAF11F0F994604D993
:109450002F494FF4F37001F0EFFC0AF5E07A40F287
:109460000C6349F82A30D4E90012D8F80030C3F868
:109470000815C3F80C25A268C3F8242534237B43C0
:10948000F35883B3D8F80030247B4FEA133AA31E75
:10949000012B4FFA8AF906D9631F022B03D91D4904
:1094A0006B2001F0C9FCB9F1000FACBF09F16043BA
:1094B000194B4FEA4414B8BF0AF00F0AE4B2AABF2E
:1094C00003F5614303F80A4083F80043D8F80030FD
:1094D0001B0B5AB2012103F01F0301FA03F35209D7
:1094E0000E4941F82230342303FB0766012386F836
:1094F0002D30284603B0BDE8F08F0825F9E7112587
:10950000F7E700BFEE2803005CAF00205D92020089
:10951000661E03003A29030014ED00E000E100E0BC
:1095200070B50D4D0479342202FB0452064692F8C0
:109530002D20012A04D0094940F2111001F07CFCD1
:1095400033680622C3F80025342303FB04540223A6
:1095500084F82D3070BD00BF5CAF0020EE28030002
:1095600070B5114D0479342202FB0452064692F87C
:109570002D2022B90D494FF48E7001F05DFC34228C
:10958000336802FB04540021094AA160C3F8082390
:10959000D3F8002222F4BC52C3F80022C3F800150D
:1095A000012384F82D3070BD5CAF0020EE2803004D
:1095B00002029C01F8B5294D0479342303FB0453BE
:1095C000064693F82D301BB92549F82001F034FCEC
:1095D00034236343EB5863B133681B0B5AB2012148
:1095E000520903F01F0301FA03F320321D4941F829
:1095F00022303046FFF7B4FF3068FFF769FC3423B0
:1096000003FB045393F8323003BB3368D3F8087577
:109610001F2F04D914494FF4F37001F00DFC4FF0E3
:10962000A04307F5E077022243F827203268D2F8FA
:109630000C751F2F1E4604D90B494FF4F37001F02F
:10964000FBFB07F5E077022346F82730342303FBC2
:109650000454002384F82D30F8BD00BF5CAF002017
:10966000EE28030000E100E0661E03002DE9F84348
:10967000037904460D4690462BB94B68FF2B02D860
:109680008B68FF2B04D9B6494FF4F87001F0D4FB76
:109690002779B44E34237B43F3583BB92B78022B04
:1096A00004D1AF494FF4FB7001F0C6FB34237B4378
:1096B000F3583BB92B78032B04D1A94940F2F7109A
:1096C00001F0BAFBEB6803F06043B3F1005F03D035
:1096D00010221046BDE8F8832468A34BC4F8083371
:1096E0004FF0340C0CFB076C9CF82F302BB1DCF8DE
:1096F0000830C4F804331122EBE718F0140F0CBF44
:10970000012300238CF82F30A946B9E80F000CF193
:109710000C0EAEE80F00D9F80030CEF80030C8F3D8
:1097200000138CF830306B78C4F888354FF48271B0
:109730002046FFF78BFD4FF49271FFF787FD18F07D
:10974000010318BF0123C4F8503518F0020318BFF5
:109750000123C4F840352B78032B00F2E080DFE8CA
:1097600003F0A0C8810218F0100F04D07C4940F229
:10977000711001F061FB18F0080F04D078494FF424
:10978000B97001F059FB18F0040F04D0744940F28D
:10979000731001F051FB2B6903F06043B3F1005FDC
:1097A00096D14FF48073C4F800326B68EA68C4F84D
:1097B00044252046C4F848354FF4A871FFF746FD0C
:1097C0004FF4B071FFF742FD4FF4A471FFF73EFD77
:1097D00001232362A360D4F85031002BFBD04FF457
:1097E000A8712046FFF732FDAB682A69C4F844250A
:1097F000C4F84835342303FB07635C4A9A604FF48E
:1098000082730821002218F0080F04D12878032859
:109810001CBF012060503421794370187158002911
:1098200040F08280012523441968002900F08980D6
:109830003421D4F8C434C4F8C43401FB07660021D1
:1098400086F82F10002B3FF444AF13F0020F48F2BC
:10985000012208BF032213F0040F48F2022318BFAD
:109860001A4636E76B68EA68C4F84425C4F84835F8
:109870002B6903F06042B2F1005F7FF429AFAA6860
:10988000C4F834354FF48453C4F83825C4F8003292
:10989000342303FB076340F202229A600123236210
:1098A000ADE76B68EA68C4F8442518F0200FC4F8E7
:1098B00048354FF0340310D003FB07634FF4807238
:1098C000C4F80022294A9A604FF4A471FFF7BEFC45
:1098D0004FF4A4730122226293E74FF4007203FB5A
:1098E0000763C4F8002240F202229A604FF48273A8
:1098F000F0E76B68EA68C4F83425C4F838354FF4EB
:109900008053C4F80032342303FB076340F2022281
:109910009A600123236200214FF4827372E74FF4AF
:109920008273082107226EE718F0040F1CBF4FF462
:1099300000738360342303FB0766B368C4F8043301
:10994000C7E6D4F8241100293FF46EAF4FF49271AA
:109950002046FFF77BFC25624FF48273656162E766
:10996000EE2803005CAF002002029C01000204000C
:109970006DDF704779DF70477DDF704764DF7047C8
:109980002DE9F74F0C9CBDF834B0278800258046A0
:109990008A4691462E46B8F80020B2420BDC35B11B
:1099A0002288013AD21B92B2FF2A39D8DA55002018
:1099B00003B0BDE8F08FD8F8042052F826000190DB
:1099C00000220DF1030101A8FFF7D8FF0028EFD115
:1099D0009DF803204A4521D12288002D14BF002084
:1099E000022002EB09010144594519DC3DB901325D
:1099F00092B2228003F802A02288013222802288BB
:109A00000DF103011A4401A8FFF7B8FF0028CFD1D8
:109A100021889DF803200A44228001250136BAE7F7
:109A20000C20C5E72DE9F341089CBDF824501746EA
:109A3000CDE9004502220646FFF7A2FF48B91022F1
:109A400039463046CDE9084502B0BDE8F041FFF7A0
:109A500097BF02B0BDE8F0812DE9F04F00231688D2
:109A6000138090F82D3085B007460D46144653B349
:109A7000082E01D80C2026E102A8FFF779FF002864
:109A800040F0218113880822CA54238801339BB2F5
:109A90001B222380CA542088013080B220800622F5
:109AA0000DF10901284401F0DDFD23889DF808200F
:109AB00006339BB212F0FE0218BF01222380EA5443
:109AC000238801332380BB78FBB123880433B3425E
:109AD000D0D802A8FFF74EFF002840F0F48023887A
:109AE0000322EA54238801339BB219222380EA54CB
:109AF0002388BDF8082001339BB2E9182380EA547B
:109B0000120A4A70238802332380FA789AB1238894
:109B1000D91CB142AED80221E954238801339BB24B
:109B200001212380E95423880B449BB22380EA540B
:109B300023880B4423807A68AAB12388D91CB142B8
:109B400098D8022192F90020E954238801339BB26E
:109B50000A212380E954238801339BB22380EA54ED
:109B60002388013323803B89002B40F0A0803B8A6F
:109B70005BB1CDE900462B460722032107F1100017
:109B8000FFF750FF002840F09E803B8B5BB1CDE992
:109B900000462B461522142107F11800FFF742FF5B
:109BA000002840F090803A6A002A40F08F80D7F871
:109BB0002480B8F1000F30D0B8F804302188981C08
:109BC0008A1C0244B2423FF655AFFE283FF652AF20
:109BD00003336B54238801339BB2FF222380EA5462
:109BE000238801339BB22380B8F80020EA54E91897
:109BF000120A4A702088023080B22080B8F804200F
:109C00005AB1D8F8081000296AD0284401F02AFD7A
:109C10002388B8F804201344238097F82C30002BB5
:109C200040F09980387800284DD03B88012B57D0E0
:109C300021888A1CB2423FF61DAF012805D17B78EE
:109C400002330B449E42FFF415AF023E761A04A97C
:109C5000B6B221F8086DA818FFF78EFE98BB3978C8
:109C6000BDF80820022900F0BB807B78934202D324
:109C7000B24240F2B380012940F0B4809BB29E42D0
:109C8000C0F0B080ADF808300821BDF80830FE2BD8
:109C90003FF6F0AE22880133AB542288013292B2F3
:109CA0002280A95422881344238000200BE0CDE9B0
:109CB00000462B460622022107F10800FFF7B2FEFC
:109CC00000283FF454AF05B0BDE8F08FB4F800C0F1
:109CD0000CF10603B3423FF6CDAE1188052901D839
:109CE0000720F0E76FF4486E01EB0E039BB24FF2D2
:109CF0007D3E7345F4D95388052BF1D96FF4486044
:109D0000181880B27045EBD94FF6FF70814203D02E
:109D1000834201D09942E3D8052305F80C3023880B
:109D200001339BB212212380E954238801339BB273
:109D300023801188E954E818090A41702388023306
:109D40009BB223805288EA54E918120A4A70238889
:109D5000023323802BE7BB6A002BC1D04FF00009F0
:109D60004FF00C0A4FF0160B97F82C305FFA89F27F
:109D700093427FF657AFB96A0AFB02F201EB020881
:109D8000B8F80430981CFE283FF674AE20880333E0
:109D90002B54238801339BB2238005F803B023881A
:109DA00001339BB223808A5AEA54E918120A4A7096
:109DB0002088023080B22080B8F804205AB1D8F848
:109DC000081000298CD0284401F04CFC2388B8F8F6
:109DD00004201344238009F10109C5E7092154E750
:109DE000B242FBD9ADF808604EE770B5C0B14AB1D8
:109DF00016880024B44203D305196D789D4208D01B
:109E0000A14201D800200BE0055D01352C44A4B22D
:109E1000F0E7A142F6D9A31C1380005D013880B29F
:109E200070BD37B502AC002324F8023D134622462C
:109E30000546FFF7DAFF10B1BDF80600284403B06D
:109E400030BD72DF704773DF704738B501220446BA
:109E50000D46B0F83812D0F83402FFF7E2FF00B137
:109E6000057004F13C0204F50D7104F15400BDE8E5
:109E70003840FFF7E6BF80F830107047F8B5044669
:109E80000F46002975D0002873D091F87A301BB1A5
:109E900091F89830002B6ED1D7F8A030042B6AD0FF
:109EA000D7F89C30042B66D04FF0000C84F802C029
:109EB00007F178060FCE251D0FC50FCE0FC596E80A
:109EC000070085E8070084F830C0D7F8A430636342
:109ED000D7F8A830A3634FF6FF7504F50D73C4F8E7
:109EE0004432A4F848520722614604F24A2001F0A5
:109EF00053FC23780BB984F8545094F8243004F1BF
:109F00005501C4F8341283B3EE23A4F8383204F5B3
:109F10000E723846FFF7A0FD30BB94F8243004F2EF
:109F20004311C4F83C1213B3EE23A4F8403204F5F5
:109F3000107207F13C00FFF78FFDA8B9A269A4F8E1
:109F4000482001236269206484F85000626401465D
:109F500084F8513084F83C3004F13C0204F15400A0
:109F6000FFF76FFF00B92370F8BD1F23CDE71F2354
:109F7000DBE70E20F8E70720F6E7F8B50778044698
:109F80000D46002F00F0058100F24A26A17007223D
:109F90000021304601F000FCE38813B1A378012BC7
:109FA00004D0E3794BB1A378022B06D1636BA3B144
:109FB000012284F8512208209847334604F5147191
:109FC00013F8012F12B99942FAD117466B1E032BD1
:109FD00053D8DFE803F0050B0F1284F85132ECE799
:109FE000A3791BB194F8243003B95FB9E3790BB1BD
:109FF000002F44D1237A002B43D1637A002B0CBF6E
:10A0000000250425636BA570002B3CD0033D012D7A
:10A0100039D86279002A36D094F85222002A32D1F7
:10A0200084F85422012284F853220720984704F12F
:10A030003C0518220021284601F0AEFBE36A94F8A3
:10A0400024200121581E884288BF0B4684F83C100A
:10A0500084F8513032B1884296BFA36A84F8521016
:10A0600084F85230A178002384F8503004291BD89A
:10A07000DFE801F0770D223559000025C2E70225FF
:10A08000C0E70325BEE7002384F85332CFE7C4F8C6
:10A090004432C4E910630223012284F83C30802357
:10A0A00084F83120A4F84830A378002B5CD1636B8E
:10A0B000002B6AD1002067E0022384F8313062B1BE
:10A0C000072384F83C302369A4F848300023C4F8FF
:10A0D0004432E36826646364E6E70323F1E76369D7
:10A0E0006364A369A4F8483012B1062384F83C30B5
:10A0F0006379B3B194F852329BB994F8543283B176
:10A10000022384F8503004212046FFF79EFE0028E9
:10A11000CAD1052384F8313004F50D73C4F84432F4
:10A12000C2E70323F6E7E3696364236AA4F84830CF
:10A1300012B1062384F83C30637983B194F852322B
:10A140006BB994F8543253B1022384F8503004218F
:10A150002046FFF77AFE0028A6D10623DAE704237B
:10A16000D8E784F831309FE72A46D4F8441204F146
:10A170005400FFF766FE38B994F8301094F8540094
:10A18000FFF761FE002892D0F8BD94F8310098479F
:10A1900090E70820F8E710B50388112B0C460AD089
:10A1A000262B1FD0102B05D1C37B012B02D1838816
:10A1B000A1F8483210BD002381F852328288B1F8EC
:10A1C00048329A42F6D10B79002BF3D10121204677
:10A1D000FFF7D3FE0028EDD0A36B002BEAD0BDE83B
:10A1E00010401847037A013B012BE3D889780523F7
:10A1F000013191FBF3F303EB8303C91AC9B2E6E71C
:10A20000704775DF704776DF70477ADF70477BDF16
:10A2100070470000034B1A8882420CBF184600208A
:10A22000704700BFACAF0020024B9B6903B11847D9
:10A23000704700BF90AF002037B585B22846FFF7C2
:10A24000E9FF034670B1164C017A227B91420BD292
:10A2500000F10A012846FFF7D4FFE8B1112801D028
:10A26000FFF7E2FF03B030BD237C0022027243B14E
:10A270003B212846FFF7C7FF30F0080301D0FFF766
:10A28000D3FF6369002BEDD000228DF80420ADF8D8
:10A29000065001A89847E5E71A7A01321A72E1E7F9
:10A2A00090AF002013B50B46497A0F4C024669B9AE
:10A2B000D4E901101C7A002C18BF01465868FCF73D
:10A2C000B1FC08B1FFF7B0FF02B010BD0021197258
:10A2D0006369002BF8D00121ADF806008DF8041059
:10A2E00001A89847F0E700BF90AF002030B5838801
:10A2F0000588B3F5FA7F24BF6FF4F9729C184A8879
:10A3000038BF002495420CD84088904209D38A88EF
:10A31000A24206D303F2F310904234BF0020012082
:10A3200030BD0020FCE7000070B50388112B01460A
:10A3300048D002D8102B1ED070BD122B52D0502BFB
:10A34000FAD12F4BC288DB899A42F5D1038A022BBE
:10A35000F2D186883046FFF75DFF05460028EBD036
:10A3600001F1120000F08AF830BB6868FCF79EFC2F
:10A370000028E1D009E0C37B012BDDD14FF6FF704F
:10A38000FFF748FF054620B90420BDE87040FFF7FD
:10A390004BBF8E881B4A0680002303721368C5F8E2
:10A3A0000A300A30536843601031FFF79FFF144BA7
:10A3B0006872DB89002BBFD129463046BDE870406A
:10A3C000FFF770BF8088FFF725FF04460028B3D051
:10A3D0004068FCF76BFC08B1FFF726FF4FF6FF73F0
:10A3E0002380A9E786883046FFF714FF054600283A
:10A3F000A2D008310A30FFF779FF6872DCE700BFAE
:10A4000090AF0020C0AF0020F8B5064650B3054617
:10A410000FCD154F3C460FC495E8070084E80700B0
:10A420003068124B3B60B8B1FFF7EFFEC8B9316836
:10A430000A681A604A685A600D480E4A4FF6FF7360
:10A4400003800D4B40F8043F0021FCF7D9FB0028A6
:10A4500014BF0320002004E01846FFF7D8FE0028B0
:10A46000EAD0F8BD0E20FCE790AF0020C0AF00207E
:10A47000ACAF002039A20200C8AF0020007800F085
:10A480000100704790DF7047A5DF7047B5DF704768
:10A490007FB50023ADF80810ADF80A106A4602A98E
:10A4A000064603930093ADF80430FFF7EBFF054633
:10A4B000F8B1114B114CE41AE408FEF76BF82404D0
:10A4C00044F00104034632460D492046FDF79AFC4C
:10A4D000BDF80020BDF8023002B91BB10949204681
:10A4E000FDF790FCBDF804201AB107492046FDF79E
:10A4F0007FFC284604B070BDA03103001032030079
:10A500008E290300D8290300172A030088B14FF0D1
:10A51000F7130360FB230371F723C3801723038121
:10A5200041F6FB32002301618372C37282811846B7
:10A5300070470E207047000013B5034680880C4614
:10A54000A0B91A88232A00F0AF8011D8102A25D08C
:10A55000112A54D0A37A4BB1E1880020FFF794FF71
:10A56000002840F0A7800123A072E37202B010BD62
:10A570003A2A4ED0552A68D0242AEBD11A7A0B6990
:10A580004A73002BE6D04DF67A21ADF80400ADF801
:10A590000010ADF802008DF8042081E00A790A73FA
:10A5A000DB7B012B13D0022B14D0E18823898B4253
:10A5B00005D20020FFF768FF70B90123E372217B09
:10A5C000637B8B42C6D20020FFF762FFC2E70B8895
:10A5D000E380EAE74B88FBE7112802D10123A3724D
:10A5E000EDE7FDF7D7FF3C4A3C4B3D499B1ADB08A2
:10A5F0001B04024643F00100FDF7FAFBDFE7F723F7
:10A60000CB8017230B8141F6FB338872C8728B8194
:10A61000A0E75B89CA88934228BF1346172B0A69B3
:10A6200038BF17230B8162B1C97A51B140F6772147
:10A63000ADF80010ADF80200ADF8043069462046D0
:10A6400090470023E372A37284E7DB88C988A07275
:10A65000172B38BF17238B4228BF0B462381FFF7E8
:10A6600015FF60B1FDF796FF1B4A1C4B1D499B1A55
:10A67000DB081B04024643F00100FDF7B9FBE27A58
:10A68000002A7FF467AF2369002B3FF463AF40F6E5
:10A690007721ADF802202289ADF80010ADF8042032
:10A6A00069462046984755E7197A237B994228BF87
:10A6B000194689E711283FF459AFFDF76BFF064AA9
:10A6C000064B07499B1ADB081B04024643F00100B6
:10A6D000FDF78EFB4AE700BFA031030010320300F4
:10A6E0006D2A03009E2A0300B0DF704766DF7047C3
:10A6F00010B5034600214088FFF7F8FF024608B96D
:10A700001A7210BD112801D10122F9E75B68BDE87A
:10A710001040184760B159B10378DE2B0AD00B689E
:10A720004360DE2303704FF6FF73438000207047C1
:10A730000E2070470820704728B10378DE2B04D123
:10A740004180002070470E20704708207047F0B508
:10A75000054685B00C46F1B1E8B10B78DE2B1AD175
:10A7600082884B889A4204D10B7A13B10846FFF7CE
:10A77000BFFF2B88112B32D0512B0ED0012B0AD1C9
:10A780002B7A012B07D1A9886288914203D12372C9
:10A790002046FFF7ADFF05B0F0BDAE886388B34239
:10A7A000F9D1AF79022FF6D1AD7B2B1F022BF2D856
:10A7B00000211022684600F0EFFF052D14BF4FF472
:10A7C000C0730023694630468DF80070ADF8043040
:10A7D000FFF78AFF0028DED063689847DBE76388CD
:10A7E000AA889A4204BF4FF6FF736380D3E710DF55
:10A7F0007047000013B5044609496846FDF778FE26
:10A80000019808B902B010BDD0E900312046984740
:10A8100018B16846FDF784FEF2E71120F2E700BFA9
:10A82000E02A030013B5044607496846FDF760FEB9
:10A83000019B0BB902B010BD2046D3E9002190471F
:10A840006846FDF76DFEF3E7F82A03000C4991F81E
:10A8500016335A09EC231341DB0706D5094B9A68D6
:10A860004AB94FF480030B607047074AA12142F2B6
:10A870000200FBF78EBF1A6842F480021A6070472C
:10A8800000E100E03CB30020042B0300F7B5184FB3
:10A890003C785CBB174E012520463570FFF7AAFFB8
:10A8A000112820D02046FFF7BDFF134B18680190F8
:10A8B00002A800F8054DFCF717FA104901A8FFF7A8
:10A8C00096FF0446B0FA80F0400938709DF8030006
:10A8D000FCF73AFA3CB90A4B34701C70FFF7B6FF2C
:10A8E0002846FFF79FFF204603B0F0BD0824FAE793
:10A8F000E9AF0020E8AF0020DA2A0300A1630200DC
:10A90000EAAF0020014B1878704700BFE9AF002084
:10A9100007B508496846FDF7EBFD019B13B903B085
:10A920005DF804FBD3E9002090476846FDF7F8FD89
:10A93000F3E700BFEC2A0300FFF7EABF60DF7047D0
:10A9400069DF704761DF704730B5134DADF5017DAC
:10A950004FF4FA740DF1020103A8ADF80240FFF7BD
:10A96000F1FF70B9294601A8FDF7C2FD029B002B3B
:10A97000F0D003A8D3E90021904701A8FDF7D0FD4E
:10A98000F4E7052804D0054A40F23911FBF701FF2E
:10A990000DF5017D30BD00BF1C2E0300CA2D030044
:10A9A000024B1B780BB1FFF7CFBF7047EBAF002016
:10A9B00030B5054685B00C46002900F0B6805C4BEA
:10A9C0000B600C22002101A800F0E6FE01238DF8A7
:10A9D000063022688DF80450062301A92020ADF826
:10A9E0000830FFF7ADFF60B1FDF7D4FD514A524B7F
:10A9F00052499B1ADB081B04024643F00100FDF795
:10AA0000F7F90C22002101A800F0C6FE01238DF801
:10AA100005302268002301A940208DF806308DF80A
:10AA20000730FFF78DFF60B1FDF7B4FD414A424B9F
:10AA300043499B1ADB081B04024643F00100FDF763
:10AA4000D7F90C22002101A800F0A6FEF723226806
:10AA50008DF8045001A92320ADF80630FFF770FFF0
:10AA600060B1FDF797FD334A334B36499B1ADB083B
:10AA70001B04024643F00100FDF7BAF90C22002145
:10AA800001A800F089FE0A2322688DF8043001A98C
:10AA90000120FFF755FF60B1FDF77CFD254A264BED
:10AAA00029499B1ADB081B04024643F00100FDF70D
:10AAB0009FF90C22002101A800F06EFE4FF4B06354
:10AAC0002268019301A9A120FFF73AFF60B1FDF7C9
:10AAD00061FD184A184B1D499B1ADB081B040246EE
:10AAE00043F00100FDF784F90C22002101A800F0D9
:10AAF00053FE9DF8043022686FF3000301A9A020E3
:10AB00008DF80430FFF71CFF68B1FDF743FD094ADB
:10AB1000094B0F499B1ADB081B04024643F0010056
:10AB2000FDF766F9002005B030BD0E20FBE700BF41
:10AB3000A8980020A0310300283203005A2B0300FC
:10AB4000A02B0300EC2B0300332C03007F2C03000D
:10AB5000D02C0300F8B506460768FFF7EFFE336810
:10AB6000BB4205461DD9194B194C1A49E41AE40891
:10AB7000240444F002042046FDF736F933681649F0
:10AB80003A462046FDF73EF94FF080533268D3F83D
:10AB90000C3112499B0203F100539A1A2046FDF72B
:10ABA00027F925B90E4B01221A702846F8BD284610
:10ABB000FDF7F0FC054A064B0A499B1ADB081B040B
:10ABC000024643F00100FDF713F9EEE7A031030060
:10ABD00028320300232D0300522D0300832D030090
:10ABE000EBAF0020AD2D03006CDF704772DF7047C4
:10ABF00074DF704776DF704778DF70477ADF704721
:10AC00007CDF70477FDF704786DF70478ADF7047E1
:10AC10008FDF7047B1DF704733DF704741DF704728
:10AC20007047000037B503881D2B044600F0AC8048
:10AC30001DD8132B7CD00AD8102B3DD0112B5DD002
:10AC4000604B13B12046AFF3008003B030BD142B2E
:10AC500000F08C801B2BF3D1037A012BF0D1FFF78E
:10AC6000DBFF0028ECD0584A4FF4CC716DE0502B3C
:10AC700052D00ED8212B00F096803B2BE0D113212F
:10AC80008088FFF7B7FF0028DAD04F4A4FF4D07121
:10AC90005BE0522B5CD045D3562BD1D18379002B6E
:10ACA000CED14A4B13211888FFF7A4FF0028C7D044
:10ACB000454A40F2A71148E0444D81884448298024
:10ACC000FFF73AFD20B1404A4FF49D71FBF761FD5B
:10ACD00000231A4619462888FFF79CFF20B13A4AFC
:10ACE0004FF4A171FBF755FD3A4800F09FFD3A4B38
:10ACF000002BA5D02046AFF30080A1E7334B3748A7
:10AD00004FF6FF721A8000F091FD354B002B97D063
:10AD10002046AFF3008093E7324B002B90D0AFF387
:10AD200000808DE7304B002B8AD0AFF3008087E79F
:10AD3000264800231A4685210088FFF763FF002874
:10AD40003FF47EAF204A40F28111FBF722FD77E706
:10AD50001E4800231A4619460088FFF75BFF0028AB
:10AD60003FF46EAF184A40F28711EEE71748002310
:10AD70001A4619460088FFF747FF00283FF460AFE6
:10AD8000114A40F29111E0E7184B0BB1AFF300808C
:10AD900017490020FFF73AFF00283FF451AF0A4A55
:10ADA00040F2C711D1E702A9002321F8043D8088B1
:10ADB000FFF72EFF00283FF443AF034A40F2D111C2
:10ADC000C3E700BF00000000652E030048B3002069
:10ADD0005CB20020942E030000000000A42E0300AB
:10ADE0000000000000000000000000000000000063
:10ADF000C898002008B5024AB021FBF7CAFC08BD7C
:10AE0000652E030008B503784BB9054B3B21188824
:10AE1000FFF7F0FE18B1034ABA21FBF7BAFC08BDF0
:10AE200048B30020652E030008B5024AAC21FBF7A9
:10AE3000B0FC08BD652E030038B50D460446044835
:10AE400000F0F4FC2A4621460248FBF7A2FC38BD7C
:10AE5000402E0300EFBEADDE1FB51B4C0023029356
:10AE6000ADF80030CDF80B3023681B788DF8023038
:10AE7000E5238DF8033098238DF804300622C02393
:10AE800069460DF109008DF8053000F0EBFB2368F1
:10AE90005B884FF6FF7293420AD08DF8003006228D
:10AEA0001B0A69460DF109008DF8013000F0DAFB4C
:10AEB00002A8FFF799FE20B1044A40F22B21FBF7CC
:10AEC00068FC04B010BD00BFECAF0020652E03008D
:10AED00013B5FFF7DBFC20B10F4A40F23321FBF73B
:10AEE00058FC02AC002344F8043D01202146FFF742
:10AEF0005FFD20B1084A40F23921FBF74AFC2046A9
:10AF0000FFF728FE20B1044A40F26E21FBF741FC16
:10AF1000FFF7A2FF02B010BD652E03007FB51F4CE6
:10AF200004AD112305F80C3D23685E68304600F03F
:10AF3000C7FD314682B22846FFF762FE20B1184AAB
:10AF40004FF42071FBF725FC4FF47070FFF754FEAF
:10AF500020B1134A4FF42171FBF71BFC08220DEBC3
:10AF60000200002100F018FC23685A899B89ADF883
:10AF70000A300C4BADF808201B68ADF80C300A4BBA
:10AF800002A81B68ADF80E30FFF738FE20B1044A66
:10AF900040F28F21FBF7FDFB04B070BDECAF002049
:10AFA000652E03003C2E0300342E030000B5ADB027
:10AFB000AC22002101A800F0EFFB022306228DF84D
:10AFC00004308DF807200123104A8DF80630ADF8C3
:10AFD000143006928DF880304FF4F07244F25063D2
:10AFE000CDE9232301A90A4B0A482A93FEF746FF1D
:10AFF00020B1094A40F2B221FBF7CBFB0121054801
:10B00000FEF739FF2DB05DF804FB00BFC4980020A7
:10B0100021AC0200F0AF0020652E030000B589B01E
:10B020001C22002101A800F0B7FB0F4A0023126880
:10B0300001930292ADF812304FF470228DF8143063
:10B040000A4B039206930322094B8DF8102001A8A6
:10B050000793FFF7D9F920B1064A4FF43271FBF795
:10B0600098FB09B05DF804FB382E030005AE020022
:10B07000F5AD0200652E030007B502A9074B41F8A4
:10B08000043D0748FFF746FB20B1064A40F2D321B2
:10B09000FBF77FFB03B05DF804FB00BF29AE0200A5
:10B0A0005CB20020652E030008B5FBF765FD20B1FA
:10B0B000024A40F22531FBF76CFB08BD652E030008
:10B0C00008B503210548FEF758FF30F0080304D007
:10B0D000034A40F23231FBF75CFB08BDF0AF0020C1
:10B0E000652E030008B5074B93F85400FFF780FD69
:10B0F00030F0080304D0044A4FF44F71FBF749FBCA
:10B1000008BD00BFF0AF0020652E030008B5FFF7B3
:10B1100085FD20B1024A40F25131FBF73AFB08BDF0
:10B12000652E030008B51A4B1860FDF7C3F820B16F
:10B13000184A40F25E31FBF72CFBFFF7B5FFFFF733
:10B14000C7FE154800F072FBFFF7E8FE134800F059
:10B150006DFB00211248FFF7D9F920B10D4A40F2EA
:10B160009621FBF716FB0F4800F060FBFFF71EFF70
:10B170000D4800F05BFBFFF77FFF0C4800F056FB2B
:10B18000FFF74CFF0A484FF6FF73038008BD00BF6E
:10B19000ECAF0020652E0300B62E0300C72E03007F
:10B1A00048B20020D22E0300DE2E0300F12E030051
:10B1B00048B3002000B591B0FFF794FF3C22002176
:10B1C00001A800F0E9FA154A02238DF8043006239D
:10B1D00002F155018DF807301F23C2F83412A2F88E
:10B1E000383201A802F50E72FEF736FC20B10C4A87
:10B1F00040F2C441FBF7CDFA0A4A02F5FC7102F1B4
:10B200001800FFF7F3FC20B1054A4FF49961FBF7F2
:10B21000C0FAFFF755FF11B05DF804FBF0AF002056
:10B22000652E03002CB000200C4B1B78062B10D190
:10B230000B4B1B681A070CD10A4B186800F0F0037F
:10B24000302B08D000F0E000A0F1400358425841F4
:10B250007047002070470120704700BFE00F00F0EA
:10B26000E40F00F0E80F00F0094B1B78062B0CD11F
:10B27000084B1B681A0708D1074B186800F0F0004C
:10B28000A0F130035842584170470020704700BF7A
:10B29000E00F00F0E40F00F0E80F00F008B5FFF752
:10B2A000C3FF28B17D4B7E4A1B68C3F304231360A0
:10B2B000FFF7DAFF10B17B4B7B4A1A60FFF7B4FF50
:10B2C00028B17A4B7A4A1B68C3F342331360FFF705
:10B2D000CBFF20B1774AD36823F08073D360FFF7A8
:10B2E000A3FF40B14FF080430022C3F80C21C3F804
:10B2F0001021C3F83825FFF7B7FF10B16E4B0322BA
:10B300001A60FFF7B1FF40B16C4B05221A600122B1
:10B310009A6700229A603F225A60694B1B78062B7D
:10B3200050D1684B1B6819074CD1674B1B6803F061
:10B33000F003502B46D14FF08052644BD2F80414E6
:10B34000C3F82015D2F80814C3F82415D2F80C1449
:10B35000C3F82815D2F81014C3F82C15D2F8141419
:10B36000C3F83015D2F81814C3F83415D2F81C14E9
:10B37000C3F84015D2F82014C3F84415D2F82414A9
:10B38000C3F84815D2F82814C3F84C15D2F82C1479
:10B39000C3F85015D2F83014C3F85415D2F8341449
:10B3A000C3F86015D2F83814C3F86415D2F83C1409
:10B3B000C3F86815D2F84014C3F86C15D2F84424C9
:10B3C000C3F87025FFF730FF28B1414B414A1B6895
:10B3D00003F04F031360FFF727FF48B14FF080439E
:10B3E000D3F80024D20744BF6FF00102C3F8002451
:10B3F000394B1B68062B08D1384B1B68062B01BF45
:10B40000374A136843F480631360364AD2F88830B1
:10B4100043F47003C2F88830BFF34F8FBFF36F8FD0
:10B420004FF01023D3F80022002A03DBD3F80432B4
:10B43000002B2FDA2C4B0122C3F80425D3F800246B
:10B44000002AFBD04FF010221521C2F80012D3F8C9
:10B450000024002AFBD04FF010231522C3F8042249
:10B46000214B1A46D3F800140029FBD00021C3F861
:10B470000415D2F80034002BFBD0BFF34F8F1949CD
:10B480001A4BCA6802F4E0621343CB60BFF34F8FDC
:10B4900000BFFDE7164B174A1A6008BD24030010D1
:10B4A0004035014074C007400DF0ADBA44020010B1
:10B4B0003C050040F0ED00E0A005004010560040C3
:10B4C000E00F00F0E40F00F0E80F00F000C00040D3
:10B4D00058020010E40E004030010010340100104A
:10B4E0003C17004000ED00E000E001400400FA05D8
:10B4F000D09800200090D0030649074A074B9B1ABA
:10B5000003DD043BC858D050FBDCFFF7C7FEFAF759
:10B5100097FE0000D8320300A898002090A20020D7
:10B52000FEE7FEE7FEE7FEE7FEE7FEE7FEE7FEE7F3
:10B53000FEE7FEE708B50021044602F02FF9044BB0
:10B540001868C36B03B19847204605F0E1F900BFC6
:10B55000042F030070B50D4E0D4D761BB61006D0AE
:10B560000024013455F8043B9847A642F9D1094E0E
:10B57000094D761B05F0E2FFB61006D00024013419
:10B5800055F8043B9847A642F9D170BD80A200202F
:10B5900080A200208CA2002080A20020044B054A3B
:10B5A0001B685B6B002B08BF134693F8280170479C
:10B5B000D4980020009D0020044B054A1B685B6B5B
:10B5C000002B08BF1346D3F8EC007047D498002036
:10B5D000009D002082B049B15AB16BB113780B6065
:10B5E0001278101C18BF012002B0704701A9002A70
:10B5F000F3D1104602B070476FF00100F4E700BFCE
:10B60000032A70B414D940EA0105AD0704460B467D
:10B6100022D11D682668AE421946204603F1040374
:10B6200004F1040418D1043A032A20461946F0D83C
:10B63000541E72B102780B789A4208BF641806D083
:10B640000CE010F8012F11F8013F9A4206D1A142F7
:10B65000F7D1002070BC7047541EEBE7D01A70BCC5
:10B66000704700BF844641EA000313F003036DD125
:10B67000403A41D351F8043B40F8043B51F8043BB5
:10B6800040F8043B51F8043B40F8043B51F8043BBC
:10B6900040F8043B51F8043B40F8043B51F8043BAC
:10B6A00040F8043B51F8043B40F8043B51F8043B9C
:10B6B00040F8043B51F8043B40F8043B51F8043B8C
:10B6C00040F8043B51F8043B40F8043B51F8043B7C
:10B6D00040F8043B51F8043B40F8043B51F8043B6C
:10B6E00040F8043B51F8043B40F8043B51F8043B5C
:10B6F00040F8043B403ABDD2303211D351F8043BFC
:10B7000040F8043B51F8043B40F8043B51F8043B3B
:10B7100040F8043B51F8043B40F8043B103AEDD2AA
:10B720000C3205D351F8043B40F8043B043AF9D2FB
:10B73000043208D0D2071CBF11F8013B00F8013BCE
:10B7400001D30B8803806046704700BF082A13D3DB
:10B750008B078DD010F003038AD0C3F10403D21AF3
:10B76000DB071CBF11F8013B00F8013B80D331F827
:10B77000023B20F8023B7BE7043AD9D3013A11F8A7
:10B78000013B00F8013BF9D20B7803704B78437012
:10B790008B78837060467047F0B4860743D0541EA0
:10B7A000002A3ED0CAB2034602E014F1FF3438D377
:10B7B00003F8012B9D07F8D1032C2BD9CDB245EA14
:10B7C00005250F2C45EA054516D9A4F110073F09B8
:10B7D00003F1200606EB071603F1100242E90455B7
:10B7E00042E902551032B242F8D104F00F04013799
:10B7F000032C03EB07130DD91E462246043A032AF5
:10B8000046F8045BFAD8221F22F0030204321344E4
:10B8100004F003042CB1C9B21C4403F8011B9C4280
:10B82000FBD1F0BC704714460346C5E70FB400B522
:10B83000074983B004AB086853F8042B816801936F
:10B8400000F0AEF903B05DF804EB04B0704700BF40
:10B85000D498002000290CBF022200224FF48063FC
:10B8600000F000B82DE9F0435D4C256883B0044634
:10B87000884616461F4615B1AB6B002B7ED0022EB4
:10B8800005D0012E00F2A980002FC0F2A680636EC1
:10B89000DA0735D52146284603F048F8216B41B137
:10B8A00004F14003994202D0284603F03DF90023F9
:10B8B0002363B4F90C3000221806A261626061D4DF
:10B8C00023F44A6323F00303022EA3811FD1002532
:10B8D000616E002004F1430243F00203A060C90737
:10B8E0004FF00100A3812260C4E9042004D49B0529
:10B8F00002D4A06D03F04AFA284603B0BDE8F083F5
:10B90000A3899B05C6D4A06D03F03EFAC2E701AB44
:10B910006A462146284603F03BFAA3891843A081D2
:10B92000002F36D1009F384603F0AAFA804600283F
:10B9300042D0A38943F08003A381AB6B7BB3009A11
:10B94000B4F90C30C4F80080BA421CBF43F4006361
:10B95000A381012E04BF43F00103A3819BB213F026
:10B960000802C4E904871ED1A260656E15F00105C6
:10B97000BDD00025284603B0BDE8F083284603F07B
:10B9800031F87CE72169284603F0CEF8B4F90C3091
:10B9900096E7B8F1000FC6D0AB6B002BCFD128468D
:10B9A00003F020F8CBE7DA0704D57F420022A76135
:10B9B000A260DAE7A760D8E7DDF80090B94504D1C6
:10B9C000B4F90C304FF0FF3582E7484603F058FADF
:10B9D00080460028F4D04F46ABE74FF0FF358BE7A9
:10B9E000D498002080EA0102844612F0030F4FD160
:10B9F00011F0030F32D14DF8044D11F0040F51F83E
:10BA0000043B0BD0A3F101329A4312F0803F04BFF4
:10BA10004CF8043B51F8043B16D100BF51F8044BDD
:10BA2000A3F101329A4312F0803FA4F101320BD10D
:10BA30004CF8043BA24312F0803F04BF51F8043B92
:10BA40004CF8044BEAD023460CF8013B13F0FF0FEF
:10BA50004FEA3323F8D15DF8044B704711F0010F22
:10BA600006D011F8012B0CF8012B002A08BF7047F3
:10BA700011F0020FBFD031F8022B12F0FF0F16BFEA
:10BA80002CF8022B8CF8002012F47F4FB3D17047B2
:10BA900011F8012B0CF8012B002AF9D1704700BFD7
:10BAA0000000000000000000000000000000000096
:10BAB0000000000000000000000000000000000086
:10BAC00090F800F06DE9024520F007016FF0000CDE
:10BAD00010F0070491F820F040F049804FF0000486
